{
  "_format": "hh-sol-artifact-1",
  "contractName": "DAppStore",
  "sourceName": "contracts/DAppStore.sol",
  "abi": [
    {
      "anonymous": false,
      "inputs": [
        {
          "indexed": false,
          "internalType": "uint256",
          "name": "appID",
          "type": "uint256"
        }
      ],
      "name": "DeleteApp",
      "type": "event"
    },
    {
      "anonymous": false,
      "inputs": [
        {
          "indexed": false,
          "internalType": "uint256",
          "name": "appID",
          "type": "uint256"
        },
        {
          "indexed": false,
          "internalType": "address",
          "name": "appOwner",
          "type": "address"
        },
        {
          "indexed": false,
          "internalType": "string",
          "name": "appName",
          "type": "string"
        },
        {
          "indexed": false,
          "internalType": "string",
          "name": "appIPFSHash",
          "type": "string"
        },
        {
          "indexed": false,
          "internalType": "string",
          "name": "appAddData",
          "type": "string"
        }
      ],
      "name": "NewApp",
      "type": "event"
    },
    {
      "anonymous": false,
      "inputs": [
        {
          "indexed": false,
          "internalType": "uint256",
          "name": "appID",
          "type": "uint256"
        }
      ],
      "name": "ReleaseApp",
      "type": "event"
    },
    {
      "anonymous": false,
      "inputs": [
        {
          "indexed": true,
          "internalType": "bytes32",
          "name": "role",
          "type": "bytes32"
        },
        {
          "indexed": true,
          "internalType": "bytes32",
          "name": "previousAdminRole",
          "type": "bytes32"
        },
        {
          "indexed": true,
          "internalType": "bytes32",
          "name": "newAdminRole",
          "type": "bytes32"
        }
      ],
      "name": "RoleAdminChanged",
      "type": "event"
    },
    {
      "anonymous": false,
      "inputs": [
        {
          "indexed": true,
          "internalType": "bytes32",
          "name": "role",
          "type": "bytes32"
        },
        {
          "indexed": true,
          "internalType": "address",
          "name": "account",
          "type": "address"
        },
        {
          "indexed": true,
          "internalType": "address",
          "name": "sender",
          "type": "address"
        }
      ],
      "name": "RoleGranted",
      "type": "event"
    },
    {
      "anonymous": false,
      "inputs": [
        {
          "indexed": true,
          "internalType": "bytes32",
          "name": "role",
          "type": "bytes32"
        },
        {
          "indexed": true,
          "internalType": "address",
          "name": "account",
          "type": "address"
        },
        {
          "indexed": true,
          "internalType": "address",
          "name": "sender",
          "type": "address"
        }
      ],
      "name": "RoleRevoked",
      "type": "event"
    },
    {
      "anonymous": false,
      "inputs": [
        {
          "indexed": false,
          "internalType": "uint256",
          "name": "versionCode",
          "type": "uint256"
        },
        {
          "indexed": false,
          "internalType": "string",
          "name": "ipfsHash",
          "type": "string"
        }
      ],
      "name": "StoreUpdate",
      "type": "event"
    },
    {
      "anonymous": false,
      "inputs": [
        {
          "indexed": false,
          "internalType": "uint256",
          "name": "appID",
          "type": "uint256"
        },
        {
          "indexed": false,
          "internalType": "address",
          "name": "appOwner",
          "type": "address"
        },
        {
          "indexed": false,
          "internalType": "string",
          "name": "appName",
          "type": "string"
        },
        {
          "indexed": false,
          "internalType": "string",
          "name": "appIPFSHash",
          "type": "string"
        },
        {
          "indexed": false,
          "internalType": "string",
          "name": "appAddData",
          "type": "string"
        }
      ],
      "name": "UpdateApp",
      "type": "event"
    },
    {
      "anonymous": false,
      "inputs": [
        {
          "indexed": false,
          "internalType": "uint256",
          "name": "appID",
          "type": "uint256"
        }
      ],
      "name": "VerifyApp",
      "type": "event"
    },
    {
      "inputs": [],
      "name": "ADMIN_ROLE",
      "outputs": [
        {
          "internalType": "bytes32",
          "name": "",
          "type": "bytes32"
        }
      ],
      "stateMutability": "view",
      "type": "function"
    },
    {
      "inputs": [],
      "name": "DEFAULT_ADMIN_ROLE",
      "outputs": [
        {
          "internalType": "bytes32",
          "name": "",
          "type": "bytes32"
        }
      ],
      "stateMutability": "view",
      "type": "function"
    },
    {
      "inputs": [
        {
          "internalType": "address",
          "name": "_newAdmin",
          "type": "address"
        }
      ],
      "name": "addAdmin",
      "outputs": [],
      "stateMutability": "nonpayable",
      "type": "function"
    },
    {
      "inputs": [],
      "name": "amountToPay",
      "outputs": [
        {
          "internalType": "uint256",
          "name": "",
          "type": "uint256"
        }
      ],
      "stateMutability": "view",
      "type": "function"
    },
    {
      "inputs": [],
      "name": "appID",
      "outputs": [
        {
          "internalType": "uint256",
          "name": "",
          "type": "uint256"
        }
      ],
      "stateMutability": "view",
      "type": "function"
    },
    {
      "inputs": [],
      "name": "currentDAppStoreIPFSHash",
      "outputs": [
        {
          "internalType": "string",
          "name": "",
          "type": "string"
        }
      ],
      "stateMutability": "view",
      "type": "function"
    },
    {
      "inputs": [
        {
          "internalType": "uint256",
          "name": "_appID",
          "type": "uint256"
        }
      ],
      "name": "deleteApp",
      "outputs": [],
      "stateMutability": "nonpayable",
      "type": "function"
    },
    {
      "inputs": [
        {
          "internalType": "uint256",
          "name": "_appID",
          "type": "uint256"
        }
      ],
      "name": "getDAppData",
      "outputs": [
        {
          "components": [
            {
              "internalType": "uint256",
              "name": "appID",
              "type": "uint256"
            },
            {
              "internalType": "address",
              "name": "appOwner",
              "type": "address"
            },
            {
              "internalType": "string",
              "name": "appName",
              "type": "string"
            },
            {
              "internalType": "string",
              "name": "appIPFSHash",
              "type": "string"
            },
            {
              "internalType": "string",
              "name": "appAddData",
              "type": "string"
            }
          ],
          "internalType": "struct DAppStore.App",
          "name": "",
          "type": "tuple"
        }
      ],
      "stateMutability": "view",
      "type": "function"
    },
    {
      "inputs": [
        {
          "internalType": "bytes32",
          "name": "role",
          "type": "bytes32"
        }
      ],
      "name": "getRoleAdmin",
      "outputs": [
        {
          "internalType": "bytes32",
          "name": "",
          "type": "bytes32"
        }
      ],
      "stateMutability": "view",
      "type": "function"
    },
    {
      "inputs": [
        {
          "internalType": "bytes32",
          "name": "role",
          "type": "bytes32"
        },
        {
          "internalType": "address",
          "name": "account",
          "type": "address"
        }
      ],
      "name": "grantRole",
      "outputs": [],
      "stateMutability": "nonpayable",
      "type": "function"
    },
    {
      "inputs": [
        {
          "internalType": "bytes32",
          "name": "role",
          "type": "bytes32"
        },
        {
          "internalType": "address",
          "name": "account",
          "type": "address"
        }
      ],
      "name": "hasRole",
      "outputs": [
        {
          "internalType": "bool",
          "name": "",
          "type": "bool"
        }
      ],
      "stateMutability": "view",
      "type": "function"
    },
    {
      "inputs": [
        {
          "internalType": "uint256",
          "name": "_amountToPay",
          "type": "uint256"
        },
        {
          "internalType": "address[]",
          "name": "admins",
          "type": "address[]"
        }
      ],
      "name": "initialize",
      "outputs": [],
      "stateMutability": "nonpayable",
      "type": "function"
    },
    {
      "inputs": [
        {
          "internalType": "uint256",
          "name": "_appID",
          "type": "uint256"
        }
      ],
      "name": "releaseDApp",
      "outputs": [],
      "stateMutability": "nonpayable",
      "type": "function"
    },
    {
      "inputs": [
        {
          "internalType": "bytes32",
          "name": "role",
          "type": "bytes32"
        },
        {
          "internalType": "address",
          "name": "account",
          "type": "address"
        }
      ],
      "name": "renounceRole",
      "outputs": [],
      "stateMutability": "nonpayable",
      "type": "function"
    },
    {
      "inputs": [
        {
          "internalType": "bytes32",
          "name": "role",
          "type": "bytes32"
        },
        {
          "internalType": "address",
          "name": "account",
          "type": "address"
        }
      ],
      "name": "revokeRole",
      "outputs": [],
      "stateMutability": "nonpayable",
      "type": "function"
    },
    {
      "inputs": [
        {
          "internalType": "string",
          "name": "_name",
          "type": "string"
        },
        {
          "internalType": "string",
          "name": "_ipfsHash",
          "type": "string"
        },
        {
          "internalType": "string",
          "name": "_additionalData",
          "type": "string"
        }
      ],
      "name": "submitDApp",
      "outputs": [],
      "stateMutability": "payable",
      "type": "function"
    },
    {
      "inputs": [
        {
          "internalType": "bytes4",
          "name": "interfaceId",
          "type": "bytes4"
        }
      ],
      "name": "supportsInterface",
      "outputs": [
        {
          "internalType": "bool",
          "name": "",
          "type": "bool"
        }
      ],
      "stateMutability": "view",
      "type": "function"
    },
    {
      "inputs": [
        {
          "internalType": "address",
          "name": "_newOwner",
          "type": "address"
        },
        {
          "internalType": "uint256",
          "name": "_appID",
          "type": "uint256"
        }
      ],
      "name": "transferAppOwner",
      "outputs": [],
      "stateMutability": "nonpayable",
      "type": "function"
    },
    {
      "inputs": [
        {
          "internalType": "uint256",
          "name": "_appID",
          "type": "uint256"
        },
        {
          "internalType": "string",
          "name": "_name",
          "type": "string"
        },
        {
          "internalType": "string",
          "name": "_ipfsHash",
          "type": "string"
        },
        {
          "internalType": "string",
          "name": "_additionalData",
          "type": "string"
        }
      ],
      "name": "updateDApp",
      "outputs": [],
      "stateMutability": "nonpayable",
      "type": "function"
    },
    {
      "inputs": [
        {
          "internalType": "uint256",
          "name": "_versionCode",
          "type": "uint256"
        },
        {
          "internalType": "string",
          "name": "_ipfsHash",
          "type": "string"
        }
      ],
      "name": "updateStore",
      "outputs": [],
      "stateMutability": "nonpayable",
      "type": "function"
    },
    {
      "inputs": [
        {
          "internalType": "uint256",
          "name": "_appID",
          "type": "uint256"
        }
      ],
      "name": "verifyDApp",
      "outputs": [],
      "stateMutability": "nonpayable",
      "type": "function"
    }
  ],
  "bytecode": "0x608060405234801561001057600080fd5b50612980806100206000396000f3fe60806040526004361061012a5760003560e01c80637ba13680116100ab578063a920b78c1161006f578063a920b78c146103ee578063ab444f2814610417578063d547741f14610440578063e58cdd9014610469578063e73173a414610492578063f9a6cbae146104ae5761012a565b80637ba13680146102f3578063887e4b861461031e57806391d148541461035b57806393946a8214610398578063a217fddf146103c35761012a565b806336568abe116100f257806336568abe146102245780635cadd4a91461024d5780636df693d314610276578063704802751461029f57806375b238fc146102c85761012a565b806301ffc9a71461012f5780631805d79f1461016c5780631c7828bb14610195578063248a9ca3146101be5780632f2ff15d146101fb575b600080fd5b34801561013b57600080fd5b5061015660048036038101906101519190611955565b6104d9565b604051610163919061199d565b60405180910390f35b34801561017857600080fd5b50610193600480360381019061018e91906119ee565b610553565b005b3480156101a157600080fd5b506101bc60048036038101906101b79190611a80565b610653565b005b3480156101ca57600080fd5b506101e560048036038101906101e09190611b16565b6106ef565b6040516101f29190611b52565b60405180910390f35b34801561020757600080fd5b50610222600480360381019061021d9190611bcb565b61070f565b005b34801561023057600080fd5b5061024b60048036038101906102469190611bcb565b610738565b005b34801561025957600080fd5b50610274600480360381019061026f91906119ee565b6107bb565b005b34801561028257600080fd5b5061029d600480360381019061029891906119ee565b6108df565b005b3480156102ab57600080fd5b506102c660048036038101906102c19190611c0b565b610919565b005b3480156102d457600080fd5b506102dd610979565b6040516102ea9190611b52565b60405180910390f35b3480156102ff57600080fd5b5061030861099d565b6040516103159190611c47565b60405180910390f35b34801561032a57600080fd5b50610345600480360381019061034091906119ee565b6109a3565b6040516103529190611d9d565b60405180910390f35b34801561036757600080fd5b50610382600480360381019061037d9190611bcb565b610bf3565b60405161038f919061199d565b60405180910390f35b3480156103a457600080fd5b506103ad610c5e565b6040516103ba9190611e09565b60405180910390f35b3480156103cf57600080fd5b506103d8610cec565b6040516103e59190611b52565b60405180910390f35b3480156103fa57600080fd5b5061041560048036038101906104109190611e81565b610cf3565b005b34801561042357600080fd5b5061043e60048036038101906104399190612011565b610e59565b005b34801561044c57600080fd5b5061046760048036038101906104629190611bcb565b610fb7565b005b34801561047557600080fd5b50610490600480360381019061048b91906120cc565b610fe0565b005b6104ac60048036038101906104a7919061210c565b6110d7565b005b3480156104ba57600080fd5b506104c361125a565b6040516104d09190611c47565b60405180910390f35b60007f7965db0b000000000000000000000000000000000000000000000000000000007bffffffffffffffffffffffffffffffffffffffffffffffffffffffff1916827bffffffffffffffffffffffffffffffffffffffffffffffffffffffff1916148061054c575061054b82611260565b5b9050919050565b7fa49807205ce4d355092ef5a8a18f56e8913cf4a201fbe287825b095693c21775610585816105806112ca565b6112d2565b60001515600b600084815260200190815260200160002060009054906101000a900460ff161515146105ec576040517f08c379a00000000000000000000000000000000000000000000000000000000081526004016105e3906121ff565b60405180910390fd5b6001600b600084815260200190815260200160002060006101000a81548160ff0219169083151502179055507f19c567786dbc11ad5299760ad5f30bd149748ab79fafc96892ec5c0b0b72b735826040516106479190611c47565b60405180910390a15050565b7fa49807205ce4d355092ef5a8a18f56e8913cf4a201fbe287825b095693c21775610685816106806112ca565b6112d2565b600454841161069357600080fd5b836004819055508282600591906106ab92919061177b565b507fac6f529748dff7dcfce830264026aae25c056feca522504efe68bbd393b95e0160045484846040516106e19392919061224c565b60405180910390a150505050565b600060016000838152602001908152602001600020600101549050919050565b610718826106ef565b610729816107246112ca565b6112d2565b610733838361136f565b505050565b6107406112ca565b73ffffffffffffffffffffffffffffffffffffffff168173ffffffffffffffffffffffffffffffffffffffff16146107ad576040517f08c379a00000000000000000000000000000000000000000000000000000000081526004016107a4906122f0565b60405180910390fd5b6107b7828261144f565b5050565b3373ffffffffffffffffffffffffffffffffffffffff166006600083815260200190815260200160002060009054906101000a900473ffffffffffffffffffffffffffffffffffffffff1673ffffffffffffffffffffffffffffffffffffffff161461085c576040517f08c379a00000000000000000000000000000000000000000000000000000000081526004016108539061235c565b60405180910390fd5b7f429e5a8f4e1289616a7ca758e14bd7070bbdb21d11f443824c6738d41b4432c28160405161088b9190611c47565b60405180910390a13373ffffffffffffffffffffffffffffffffffffffff166108fc6003549081150290604051600060405180830381858888f193505050501580156108db573d6000803e3d6000fd5b5050565b7f776ec9d2ad2a989538db0c4f163462480d393f71e37a4ffd62689425ec14a08e8160405161090e9190611c47565b60405180910390a150565b7fa49807205ce4d355092ef5a8a18f56e8913cf4a201fbe287825b095693c2177561094b816109466112ca565b6112d2565b6109757fa49807205ce4d355092ef5a8a18f56e8913cf4a201fbe287825b095693c217758361070f565b5050565b7fa49807205ce4d355092ef5a8a18f56e8913cf4a201fbe287825b095693c2177581565b60035481565b6109ab611801565b6040518060a001604052808381526020016006600085815260200190815260200160002060009054906101000a900473ffffffffffffffffffffffffffffffffffffffff1673ffffffffffffffffffffffffffffffffffffffff168152602001600760008581526020019081526020016000208054610a29906123ab565b80601f0160208091040260200160405190810160405280929190818152602001828054610a55906123ab565b8015610aa25780601f10610a7757610100808354040283529160200191610aa2565b820191906000526020600020905b815481529060010190602001808311610a8557829003601f168201915b50505050508152602001600860008581526020019081526020016000208054610aca906123ab565b80601f0160208091040260200160405190810160405280929190818152602001828054610af6906123ab565b8015610b435780601f10610b1857610100808354040283529160200191610b43565b820191906000526020600020905b815481529060010190602001808311610b2657829003601f168201915b50505050508152602001600960008581526020019081526020016000208054610b6b906123ab565b80601f0160208091040260200160405190810160405280929190818152602001828054610b97906123ab565b8015610be45780601f10610bb957610100808354040283529160200191610be4565b820191906000526020600020905b815481529060010190602001808311610bc757829003601f168201915b50505050508152509050919050565b60006001600084815260200190815260200160002060000160008373ffffffffffffffffffffffffffffffffffffffff1673ffffffffffffffffffffffffffffffffffffffff16815260200190815260200160002060009054906101000a900460ff16905092915050565b60058054610c6b906123ab565b80601f0160208091040260200160405190810160405280929190818152602001828054610c97906123ab565b8015610ce45780601f10610cb957610100808354040283529160200191610ce4565b820191906000526020600020905b815481529060010190602001808311610cc757829003601f168201915b505050505081565b6000801b81565b600060019054906101000a900460ff1680610d19575060008054906101000a900460ff16155b610d58576040517f08c379a0000000000000000000000000000000000000000000000000000000008152600401610d4f9061244f565b60405180910390fd5b60008060019054906101000a900460ff161590508015610da8576001600060016101000a81548160ff02191690831515021790555060016000806101000a81548160ff0219169083151502179055505b8360038190555060005b83839050811015610e2157610e0e7fa49807205ce4d355092ef5a8a18f56e8913cf4a201fbe287825b095693c21775858584818110610df457610df361246f565b5b9050602002016020810190610e099190611c0b565b611531565b8080610e19906124cd565b915050610db2565b50600060028190555060006004819055508015610e535760008060016101000a81548160ff0219169083151502179055505b50505050565b3373ffffffffffffffffffffffffffffffffffffffff166006600086815260200190815260200160002060009054906101000a900473ffffffffffffffffffffffffffffffffffffffff1673ffffffffffffffffffffffffffffffffffffffff1614610efa576040517f08c379a0000000000000000000000000000000000000000000000000000000008152600401610ef19061235c565b60405180910390fd5b82600760008681526020019081526020016000209080519060200190610f21929190611846565b5081600860008681526020019081526020016000209080519060200190610f49929190611846565b5080600960008681526020019081526020016000209080519060200190610f71929190611846565b507ffd025d83852f29d01b58fd4b19d8cfe0e12af0ee9f31a7e273ea765cd4dd86208433858585604051610fa9959493929190612525565b60405180910390a150505050565b610fc0826106ef565b610fd181610fcc6112ca565b6112d2565b610fdb838361144f565b505050565b3373ffffffffffffffffffffffffffffffffffffffff166006600083815260200190815260200160002060009054906101000a900473ffffffffffffffffffffffffffffffffffffffff1673ffffffffffffffffffffffffffffffffffffffff1614611081576040517f08c379a0000000000000000000000000000000000000000000000000000000008152600401611078906125d9565b60405180910390fd5b816006600083815260200190815260200160002060006101000a81548173ffffffffffffffffffffffffffffffffffffffff021916908373ffffffffffffffffffffffffffffffffffffffff1602179055505050565b3360066000600254815260200190815260200160002060006101000a81548173ffffffffffffffffffffffffffffffffffffffff021916908373ffffffffffffffffffffffffffffffffffffffff160217905550826007600060025481526020019081526020016000209080519060200190611154929190611846565b5081600860006002548152602001908152602001600020908051906020019061117e929190611846565b508060096000600254815260200190815260200160002090805190602001906111a8929190611846565b5042600a60006002548152602001908152602001600020819055507f54362b36d34efdda9f90402e88c73fd5b6d780ea5a94052317e4664b31aacc386002543360076000600254815260200190815260200160002060086000600254815260200190815260200160002060096000600254815260200190815260200160002060405161123895949392919061268e565b60405180910390a1600160025461124f91906126f6565b600281905550505050565b60025481565b60007f01ffc9a7000000000000000000000000000000000000000000000000000000007bffffffffffffffffffffffffffffffffffffffffffffffffffffffff1916827bffffffffffffffffffffffffffffffffffffffffffffffffffffffff1916149050919050565b600033905090565b6112dc8282610bf3565b61136b576113018173ffffffffffffffffffffffffffffffffffffffff16601461153f565b61130f8360001c602061153f565b604051602001611320929190612820565b6040516020818303038152906040526040517f08c379a00000000000000000000000000000000000000000000000000000000081526004016113629190611e09565b60405180910390fd5b5050565b6113798282610bf3565b61144b57600180600084815260200190815260200160002060000160008373ffffffffffffffffffffffffffffffffffffffff1673ffffffffffffffffffffffffffffffffffffffff16815260200190815260200160002060006101000a81548160ff0219169083151502179055506113f06112ca565b73ffffffffffffffffffffffffffffffffffffffff168173ffffffffffffffffffffffffffffffffffffffff16837f2f8788117e7eff1d82e926ec794901d17c78024a50270940304540a733656f0d60405160405180910390a45b5050565b6114598282610bf3565b1561152d5760006001600084815260200190815260200160002060000160008373ffffffffffffffffffffffffffffffffffffffff1673ffffffffffffffffffffffffffffffffffffffff16815260200190815260200160002060006101000a81548160ff0219169083151502179055506114d26112ca565b73ffffffffffffffffffffffffffffffffffffffff168173ffffffffffffffffffffffffffffffffffffffff16837ff6391f5c32d9c69d2a47ea670b442974b53935d1edc7fd64eb21e047a839171b60405160405180910390a45b5050565b61153b828261136f565b5050565b606060006002836002611552919061285a565b61155c91906126f6565b67ffffffffffffffff81111561157557611574611ee6565b5b6040519080825280601f01601f1916602001820160405280156115a75781602001600182028036833780820191505090505b5090507f3000000000000000000000000000000000000000000000000000000000000000816000815181106115df576115de61246f565b5b60200101907effffffffffffffffffffffffffffffffffffffffffffffffffffffffffffff1916908160001a9053507f7800000000000000000000000000000000000000000000000000000000000000816001815181106116435761164261246f565b5b60200101907effffffffffffffffffffffffffffffffffffffffffffffffffffffffffffff1916908160001a90535060006001846002611683919061285a565b61168d91906126f6565b90505b600181111561172d577f3031323334353637383961626364656600000000000000000000000000000000600f8616601081106116cf576116ce61246f565b5b1a60f81b8282815181106116e6576116e561246f565b5b60200101907effffffffffffffffffffffffffffffffffffffffffffffffffffffffffffff1916908160001a905350600485901c945080611726906128b4565b9050611690565b5060008414611771576040517f08c379a00000000000000000000000000000000000000000000000000000000081526004016117689061292a565b60405180910390fd5b8091505092915050565b828054611787906123ab565b90600052602060002090601f0160209004810192826117a957600085556117f0565b82601f106117c257803560ff19168380011785556117f0565b828001600101855582156117f0579182015b828111156117ef5782358255916020019190600101906117d4565b5b5090506117fd91906118cc565b5090565b6040518060a0016040528060008152602001600073ffffffffffffffffffffffffffffffffffffffff1681526020016060815260200160608152602001606081525090565b828054611852906123ab565b90600052602060002090601f01602090048101928261187457600085556118bb565b82601f1061188d57805160ff19168380011785556118bb565b828001600101855582156118bb579182015b828111156118ba57825182559160200191906001019061189f565b5b5090506118c891906118cc565b5090565b5b808211156118e55760008160009055506001016118cd565b5090565b6000604051905090565b600080fd5b600080fd5b60007fffffffff0000000000000000000000000000000000000000000000000000000082169050919050565b611932816118fd565b811461193d57600080fd5b50565b60008135905061194f81611929565b92915050565b60006020828403121561196b5761196a6118f3565b5b600061197984828501611940565b91505092915050565b60008115159050919050565b61199781611982565b82525050565b60006020820190506119b2600083018461198e565b92915050565b6000819050919050565b6119cb816119b8565b81146119d657600080fd5b50565b6000813590506119e8816119c2565b92915050565b600060208284031215611a0457611a036118f3565b5b6000611a12848285016119d9565b91505092915050565b600080fd5b600080fd5b600080fd5b60008083601f840112611a4057611a3f611a1b565b5b8235905067ffffffffffffffff811115611a5d57611a5c611a20565b5b602083019150836001820283011115611a7957611a78611a25565b5b9250929050565b600080600060408486031215611a9957611a986118f3565b5b6000611aa7868287016119d9565b935050602084013567ffffffffffffffff811115611ac857611ac76118f8565b5b611ad486828701611a2a565b92509250509250925092565b6000819050919050565b611af381611ae0565b8114611afe57600080fd5b50565b600081359050611b1081611aea565b92915050565b600060208284031215611b2c57611b2b6118f3565b5b6000611b3a84828501611b01565b91505092915050565b611b4c81611ae0565b82525050565b6000602082019050611b676000830184611b43565b92915050565b600073ffffffffffffffffffffffffffffffffffffffff82169050919050565b6000611b9882611b6d565b9050919050565b611ba881611b8d565b8114611bb357600080fd5b50565b600081359050611bc581611b9f565b92915050565b60008060408385031215611be257611be16118f3565b5b6000611bf085828601611b01565b9250506020611c0185828601611bb6565b9150509250929050565b600060208284031215611c2157611c206118f3565b5b6000611c2f84828501611bb6565b91505092915050565b611c41816119b8565b82525050565b6000602082019050611c5c6000830184611c38565b92915050565b611c6b816119b8565b82525050565b611c7a81611b8d565b82525050565b600081519050919050565b600082825260208201905092915050565b60005b83811015611cba578082015181840152602081019050611c9f565b83811115611cc9576000848401525b50505050565b6000601f19601f8301169050919050565b6000611ceb82611c80565b611cf58185611c8b565b9350611d05818560208601611c9c565b611d0e81611ccf565b840191505092915050565b600060a083016000830151611d316000860182611c62565b506020830151611d446020860182611c71565b5060408301518482036040860152611d5c8282611ce0565b91505060608301518482036060860152611d768282611ce0565b91505060808301518482036080860152611d908282611ce0565b9150508091505092915050565b60006020820190508181036000830152611db78184611d19565b905092915050565b600082825260208201905092915050565b6000611ddb82611c80565b611de58185611dbf565b9350611df5818560208601611c9c565b611dfe81611ccf565b840191505092915050565b60006020820190508181036000830152611e238184611dd0565b905092915050565b60008083601f840112611e4157611e40611a1b565b5b8235905067ffffffffffffffff811115611e5e57611e5d611a20565b5b602083019150836020820283011115611e7a57611e79611a25565b5b9250929050565b600080600060408486031215611e9a57611e996118f3565b5b6000611ea8868287016119d9565b935050602084013567ffffffffffffffff811115611ec957611ec86118f8565b5b611ed586828701611e2b565b92509250509250925092565b600080fd5b7f4e487b7100000000000000000000000000000000000000000000000000000000600052604160045260246000fd5b611f1e82611ccf565b810181811067ffffffffffffffff82111715611f3d57611f3c611ee6565b5b80604052505050565b6000611f506118e9565b9050611f5c8282611f15565b919050565b600067ffffffffffffffff821115611f7c57611f7b611ee6565b5b611f8582611ccf565b9050602081019050919050565b82818337600083830152505050565b6000611fb4611faf84611f61565b611f46565b905082815260208101848484011115611fd057611fcf611ee1565b5b611fdb848285611f92565b509392505050565b600082601f830112611ff857611ff7611a1b565b5b8135612008848260208601611fa1565b91505092915050565b6000806000806080858703121561202b5761202a6118f3565b5b6000612039878288016119d9565b945050602085013567ffffffffffffffff81111561205a576120596118f8565b5b61206687828801611fe3565b935050604085013567ffffffffffffffff811115612087576120866118f8565b5b61209387828801611fe3565b925050606085013567ffffffffffffffff8111156120b4576120b36118f8565b5b6120c087828801611fe3565b91505092959194509250565b600080604083850312156120e3576120e26118f3565b5b60006120f185828601611bb6565b9250506020612102858286016119d9565b9150509250929050565b600080600060608486031215612125576121246118f3565b5b600084013567ffffffffffffffff811115612143576121426118f8565b5b61214f86828701611fe3565b935050602084013567ffffffffffffffff8111156121705761216f6118f8565b5b61217c86828701611fe3565b925050604084013567ffffffffffffffff81111561219d5761219c6118f8565b5b6121a986828701611fe3565b9150509250925092565b7f416c726561647920766572696669656400000000000000000000000000000000600082015250565b60006121e9601083611dbf565b91506121f4826121b3565b602082019050919050565b60006020820190508181036000830152612218816121dc565b9050919050565b600061222b8385611dbf565b9350612238838584611f92565b61224183611ccf565b840190509392505050565b60006040820190506122616000830186611c38565b818103602083015261227481848661221f565b9050949350505050565b7f416363657373436f6e74726f6c3a2063616e206f6e6c792072656e6f756e636560008201527f20726f6c657320666f722073656c660000000000000000000000000000000000602082015250565b60006122da602f83611dbf565b91506122e58261227e565b604082019050919050565b60006020820190508181036000830152612309816122cd565b9050919050565b7f4e6f74206f776e6572206f662064617070000000000000000000000000000000600082015250565b6000612346601183611dbf565b915061235182612310565b602082019050919050565b6000602082019050818103600083015261237581612339565b9050919050565b7f4e487b7100000000000000000000000000000000000000000000000000000000600052602260045260246000fd5b600060028204905060018216806123c357607f821691505b602082108114156123d7576123d661237c565b5b50919050565b7f496e697469616c697a61626c653a20636f6e747261637420697320616c72656160008201527f647920696e697469616c697a6564000000000000000000000000000000000000602082015250565b6000612439602e83611dbf565b9150612444826123dd565b604082019050919050565b600060208201905081810360008301526124688161242c565b9050919050565b7f4e487b7100000000000000000000000000000000000000000000000000000000600052603260045260246000fd5b7f4e487b7100000000000000000000000000000000000000000000000000000000600052601160045260246000fd5b60006124d8826119b8565b91507fffffffffffffffffffffffffffffffffffffffffffffffffffffffffffffffff82141561250b5761250a61249e565b5b600182019050919050565b61251f81611b8d565b82525050565b600060a08201905061253a6000830188611c38565b6125476020830187612516565b81810360408301526125598186611dd0565b9050818103606083015261256d8185611dd0565b905081810360808301526125818184611dd0565b90509695505050505050565b7f4e6f74206f776e65720000000000000000000000000000000000000000000000600082015250565b60006125c3600983611dbf565b91506125ce8261258d565b602082019050919050565b600060208201905081810360008301526125f2816125b6565b9050919050565b60008190508160005260206000209050919050565b6000815461261b816123ab565b6126258186611dbf565b94506001821660008114612640576001811461265257612685565b60ff1983168652602086019350612685565b61265b856125f9565b60005b8381101561267d5781548189015260018201915060208101905061265e565b808801955050505b50505092915050565b600060a0820190506126a36000830188611c38565b6126b06020830187612516565b81810360408301526126c2818661260e565b905081810360608301526126d6818561260e565b905081810360808301526126ea818461260e565b90509695505050505050565b6000612701826119b8565b915061270c836119b8565b9250827fffffffffffffffffffffffffffffffffffffffffffffffffffffffffffffffff038211156127415761274061249e565b5b828201905092915050565b600081905092915050565b7f416363657373436f6e74726f6c3a206163636f756e7420000000000000000000600082015250565b600061278d60178361274c565b915061279882612757565b601782019050919050565b60006127ae82611c80565b6127b8818561274c565b93506127c8818560208601611c9c565b80840191505092915050565b7f206973206d697373696e6720726f6c6520000000000000000000000000000000600082015250565b600061280a60118361274c565b9150612815826127d4565b601182019050919050565b600061282b82612780565b915061283782856127a3565b9150612842826127fd565b915061284e82846127a3565b91508190509392505050565b6000612865826119b8565b9150612870836119b8565b9250817fffffffffffffffffffffffffffffffffffffffffffffffffffffffffffffffff04831182151516156128a9576128a861249e565b5b828202905092915050565b60006128bf826119b8565b915060008214156128d3576128d261249e565b5b600182039050919050565b7f537472696e67733a20686578206c656e67746820696e73756666696369656e74600082015250565b6000612914602083611dbf565b915061291f826128de565b602082019050919050565b6000602082019050818103600083015261294381612907565b905091905056fea26469706673582212208f0ee76cef5f412b12aabf5d0eee3507e96a3d036a8af51c0cae456831f3518c64736f6c63430008090033",
  "linkReferences": {},
  "deployedLinkReferences": {}
}