{
  "_format": "hh-sol-artifact-1",
  "contractName": "DAppStore",
  "sourceName": "contracts/DAppStore.sol",
  "abi": [
    {
      "anonymous": false,
      "inputs": [
        {
          "indexed": false,
          "internalType": "uint256",
          "name": "appID",
          "type": "uint256"
        }
      ],
      "name": "DeleteApp",
      "type": "event"
    },
    {
      "anonymous": false,
      "inputs": [
        {
          "indexed": false,
          "internalType": "uint256",
          "name": "appID",
          "type": "uint256"
        },
        {
          "indexed": false,
          "internalType": "address",
          "name": "appOwner",
          "type": "address"
        },
        {
          "indexed": false,
          "internalType": "string",
          "name": "appName",
          "type": "string"
        },
        {
          "indexed": false,
          "internalType": "string",
          "name": "appIPFSHash",
          "type": "string"
        },
        {
          "indexed": false,
          "internalType": "string",
          "name": "appAddData",
          "type": "string"
        }
      ],
      "name": "NewApp",
      "type": "event"
    },
    {
      "anonymous": false,
      "inputs": [
        {
          "indexed": false,
          "internalType": "uint256",
          "name": "appID",
          "type": "uint256"
        }
      ],
      "name": "ReleaseApp",
      "type": "event"
    },
    {
      "anonymous": false,
      "inputs": [
        {
          "indexed": true,
          "internalType": "bytes32",
          "name": "role",
          "type": "bytes32"
        },
        {
          "indexed": true,
          "internalType": "bytes32",
          "name": "previousAdminRole",
          "type": "bytes32"
        },
        {
          "indexed": true,
          "internalType": "bytes32",
          "name": "newAdminRole",
          "type": "bytes32"
        }
      ],
      "name": "RoleAdminChanged",
      "type": "event"
    },
    {
      "anonymous": false,
      "inputs": [
        {
          "indexed": true,
          "internalType": "bytes32",
          "name": "role",
          "type": "bytes32"
        },
        {
          "indexed": true,
          "internalType": "address",
          "name": "account",
          "type": "address"
        },
        {
          "indexed": true,
          "internalType": "address",
          "name": "sender",
          "type": "address"
        }
      ],
      "name": "RoleGranted",
      "type": "event"
    },
    {
      "anonymous": false,
      "inputs": [
        {
          "indexed": true,
          "internalType": "bytes32",
          "name": "role",
          "type": "bytes32"
        },
        {
          "indexed": true,
          "internalType": "address",
          "name": "account",
          "type": "address"
        },
        {
          "indexed": true,
          "internalType": "address",
          "name": "sender",
          "type": "address"
        }
      ],
      "name": "RoleRevoked",
      "type": "event"
    },
    {
      "anonymous": false,
      "inputs": [
        {
          "indexed": false,
          "internalType": "uint256",
          "name": "appID",
          "type": "uint256"
        },
        {
          "indexed": false,
          "internalType": "address",
          "name": "appOwner",
          "type": "address"
        },
        {
          "indexed": false,
          "internalType": "string",
          "name": "appName",
          "type": "string"
        },
        {
          "indexed": false,
          "internalType": "string",
          "name": "appIPFSHash",
          "type": "string"
        },
        {
          "indexed": false,
          "internalType": "string",
          "name": "appAddData",
          "type": "string"
        }
      ],
      "name": "UpdateApp",
      "type": "event"
    },
    {
      "anonymous": false,
      "inputs": [
        {
          "indexed": false,
          "internalType": "uint256",
          "name": "appID",
          "type": "uint256"
        }
      ],
      "name": "VerifyApp",
      "type": "event"
    },
    {
      "inputs": [],
      "name": "ADMIN_ROLE",
      "outputs": [
        {
          "internalType": "bytes32",
          "name": "",
          "type": "bytes32"
        }
      ],
      "stateMutability": "view",
      "type": "function"
    },
    {
      "inputs": [],
      "name": "DEFAULT_ADMIN_ROLE",
      "outputs": [
        {
          "internalType": "bytes32",
          "name": "",
          "type": "bytes32"
        }
      ],
      "stateMutability": "view",
      "type": "function"
    },
    {
      "inputs": [
        {
          "internalType": "address",
          "name": "_newAdmin",
          "type": "address"
        }
      ],
      "name": "addAdmin",
      "outputs": [],
      "stateMutability": "nonpayable",
      "type": "function"
    },
    {
      "inputs": [],
      "name": "amountToPay",
      "outputs": [
        {
          "internalType": "uint256",
          "name": "",
          "type": "uint256"
        }
      ],
      "stateMutability": "view",
      "type": "function"
    },
    {
      "inputs": [],
      "name": "appID",
      "outputs": [
        {
          "internalType": "uint256",
          "name": "",
          "type": "uint256"
        }
      ],
      "stateMutability": "view",
      "type": "function"
    },
    {
      "inputs": [
        {
          "internalType": "uint256",
          "name": "_appID",
          "type": "uint256"
        }
      ],
      "name": "deleteApp",
      "outputs": [],
      "stateMutability": "nonpayable",
      "type": "function"
    },
    {
      "inputs": [
        {
          "internalType": "uint256",
          "name": "_appID",
          "type": "uint256"
        }
      ],
      "name": "getDAppData",
      "outputs": [
        {
          "components": [
            {
              "internalType": "uint256",
              "name": "appID",
              "type": "uint256"
            },
            {
              "internalType": "address",
              "name": "appOwner",
              "type": "address"
            },
            {
              "internalType": "string",
              "name": "appName",
              "type": "string"
            },
            {
              "internalType": "string",
              "name": "appIPFSHash",
              "type": "string"
            },
            {
              "internalType": "string",
              "name": "appAddData",
              "type": "string"
            }
          ],
          "internalType": "struct DAppStore.App",
          "name": "",
          "type": "tuple"
        }
      ],
      "stateMutability": "view",
      "type": "function"
    },
    {
      "inputs": [
        {
          "internalType": "bytes32",
          "name": "role",
          "type": "bytes32"
        }
      ],
      "name": "getRoleAdmin",
      "outputs": [
        {
          "internalType": "bytes32",
          "name": "",
          "type": "bytes32"
        }
      ],
      "stateMutability": "view",
      "type": "function"
    },
    {
      "inputs": [
        {
          "internalType": "bytes32",
          "name": "role",
          "type": "bytes32"
        },
        {
          "internalType": "address",
          "name": "account",
          "type": "address"
        }
      ],
      "name": "grantRole",
      "outputs": [],
      "stateMutability": "nonpayable",
      "type": "function"
    },
    {
      "inputs": [
        {
          "internalType": "bytes32",
          "name": "role",
          "type": "bytes32"
        },
        {
          "internalType": "address",
          "name": "account",
          "type": "address"
        }
      ],
      "name": "hasRole",
      "outputs": [
        {
          "internalType": "bool",
          "name": "",
          "type": "bool"
        }
      ],
      "stateMutability": "view",
      "type": "function"
    },
    {
      "inputs": [
        {
          "internalType": "uint256",
          "name": "_amountToPay",
          "type": "uint256"
        },
        {
          "internalType": "address[]",
          "name": "admins",
          "type": "address[]"
        }
      ],
      "name": "initialize",
      "outputs": [],
      "stateMutability": "nonpayable",
      "type": "function"
    },
    {
      "inputs": [
        {
          "internalType": "uint256",
          "name": "_appID",
          "type": "uint256"
        }
      ],
      "name": "releaseDApp",
      "outputs": [],
      "stateMutability": "nonpayable",
      "type": "function"
    },
    {
      "inputs": [
        {
          "internalType": "bytes32",
          "name": "role",
          "type": "bytes32"
        },
        {
          "internalType": "address",
          "name": "account",
          "type": "address"
        }
      ],
      "name": "renounceRole",
      "outputs": [],
      "stateMutability": "nonpayable",
      "type": "function"
    },
    {
      "inputs": [
        {
          "internalType": "bytes32",
          "name": "role",
          "type": "bytes32"
        },
        {
          "internalType": "address",
          "name": "account",
          "type": "address"
        }
      ],
      "name": "revokeRole",
      "outputs": [],
      "stateMutability": "nonpayable",
      "type": "function"
    },
    {
      "inputs": [
        {
          "internalType": "string",
          "name": "_name",
          "type": "string"
        },
        {
          "internalType": "string",
          "name": "_ipfsHash",
          "type": "string"
        },
        {
          "internalType": "string",
          "name": "_additionalData",
          "type": "string"
        }
      ],
      "name": "submitDApp",
      "outputs": [],
      "stateMutability": "payable",
      "type": "function"
    },
    {
      "inputs": [
        {
          "internalType": "bytes4",
          "name": "interfaceId",
          "type": "bytes4"
        }
      ],
      "name": "supportsInterface",
      "outputs": [
        {
          "internalType": "bool",
          "name": "",
          "type": "bool"
        }
      ],
      "stateMutability": "view",
      "type": "function"
    },
    {
      "inputs": [
        {
          "internalType": "address",
          "name": "_newOwner",
          "type": "address"
        },
        {
          "internalType": "uint256",
          "name": "_appID",
          "type": "uint256"
        }
      ],
      "name": "transferAppOwner",
      "outputs": [],
      "stateMutability": "nonpayable",
      "type": "function"
    },
    {
      "inputs": [
        {
          "internalType": "uint256",
          "name": "_appID",
          "type": "uint256"
        },
        {
          "internalType": "string",
          "name": "_name",
          "type": "string"
        },
        {
          "internalType": "string",
          "name": "_ipfsHash",
          "type": "string"
        },
        {
          "internalType": "string",
          "name": "_additionalData",
          "type": "string"
        }
      ],
      "name": "updateDApp",
      "outputs": [],
      "stateMutability": "nonpayable",
      "type": "function"
    },
    {
      "inputs": [
        {
          "internalType": "uint256",
          "name": "_appID",
          "type": "uint256"
        }
      ],
      "name": "verifyDApp",
      "outputs": [],
      "stateMutability": "nonpayable",
      "type": "function"
    }
  ],
  "bytecode": "0x608060405234801561001057600080fd5b50612649806100206000396000f3fe6080604052600436106101145760003560e01c80637ba13680116100a0578063ab444f2811610064578063ab444f28146103ad578063d547741f146103d6578063e58cdd90146103ff578063e73173a414610428578063f9a6cbae1461044457610114565b80637ba13680146102b4578063887e4b86146102df57806391d148541461031c578063a217fddf14610359578063a920b78c1461038457610114565b806336568abe116100e757806336568abe146101e55780635cadd4a91461020e5780636df693d314610237578063704802751461026057806375b238fc1461028957610114565b806301ffc9a7146101195780631805d79f14610156578063248a9ca31461017f5780632f2ff15d146101bc575b600080fd5b34801561012557600080fd5b50610140600480360381019061013b9190611733565b61046f565b60405161014d919061177b565b60405180910390f35b34801561016257600080fd5b5061017d600480360381019061017891906117cc565b6104e9565b005b34801561018b57600080fd5b506101a660048036038101906101a1919061182f565b6105e9565b6040516101b3919061186b565b60405180910390f35b3480156101c857600080fd5b506101e360048036038101906101de91906118e4565b610609565b005b3480156101f157600080fd5b5061020c600480360381019061020791906118e4565b610632565b005b34801561021a57600080fd5b50610235600480360381019061023091906117cc565b6106b5565b005b34801561024357600080fd5b5061025e600480360381019061025991906117cc565b6107d9565b005b34801561026c57600080fd5b5061028760048036038101906102829190611924565b610813565b005b34801561029557600080fd5b5061029e610873565b6040516102ab919061186b565b60405180910390f35b3480156102c057600080fd5b506102c9610897565b6040516102d69190611960565b60405180910390f35b3480156102eb57600080fd5b50610306600480360381019061030191906117cc565b61089d565b6040516103139190611ab6565b60405180910390f35b34801561032857600080fd5b50610343600480360381019061033e91906118e4565b610aed565b604051610350919061177b565b60405180910390f35b34801561036557600080fd5b5061036e610b58565b60405161037b919061186b565b60405180910390f35b34801561039057600080fd5b506103ab60048036038101906103a69190611b3d565b610b5f565b005b3480156103b957600080fd5b506103d460048036038101906103cf9190611ccd565b610cbd565b005b3480156103e257600080fd5b506103fd60048036038101906103f891906118e4565b610e1b565b005b34801561040b57600080fd5b5061042660048036038101906104219190611d88565b610e44565b005b610442600480360381019061043d9190611dc8565b610f3b565b005b34801561045057600080fd5b506104596110be565b6040516104669190611960565b60405180910390f35b60007f7965db0b000000000000000000000000000000000000000000000000000000007bffffffffffffffffffffffffffffffffffffffffffffffffffffffff1916827bffffffffffffffffffffffffffffffffffffffffffffffffffffffff191614806104e257506104e1826110c4565b5b9050919050565b7fa49807205ce4d355092ef5a8a18f56e8913cf4a201fbe287825b095693c2177561051b8161051661112e565b611136565b600015156009600084815260200190815260200160002060009054906101000a900460ff16151514610582576040517f08c379a000000000000000000000000000000000000000000000000000000000815260040161057990611ecc565b60405180910390fd5b60016009600084815260200190815260200160002060006101000a81548160ff0219169083151502179055507f19c567786dbc11ad5299760ad5f30bd149748ab79fafc96892ec5c0b0b72b735826040516105dd9190611960565b60405180910390a15050565b600060016000838152602001908152602001600020600101549050919050565b610612826105e9565b6106238161061e61112e565b611136565b61062d83836111d3565b505050565b61063a61112e565b73ffffffffffffffffffffffffffffffffffffffff168173ffffffffffffffffffffffffffffffffffffffff16146106a7576040517f08c379a000000000000000000000000000000000000000000000000000000000815260040161069e90611f5e565b60405180910390fd5b6106b182826112b3565b5050565b3373ffffffffffffffffffffffffffffffffffffffff166004600083815260200190815260200160002060009054906101000a900473ffffffffffffffffffffffffffffffffffffffff1673ffffffffffffffffffffffffffffffffffffffff1614610756576040517f08c379a000000000000000000000000000000000000000000000000000000000815260040161074d90611fca565b60405180910390fd5b7f429e5a8f4e1289616a7ca758e14bd7070bbdb21d11f443824c6738d41b4432c2816040516107859190611960565b60405180910390a13373ffffffffffffffffffffffffffffffffffffffff166108fc6003549081150290604051600060405180830381858888f193505050501580156107d5573d6000803e3d6000fd5b5050565b7f776ec9d2ad2a989538db0c4f163462480d393f71e37a4ffd62689425ec14a08e816040516108089190611960565b60405180910390a150565b7fa49807205ce4d355092ef5a8a18f56e8913cf4a201fbe287825b095693c217756108458161084061112e565b611136565b61086f7fa49807205ce4d355092ef5a8a18f56e8913cf4a201fbe287825b095693c2177583610609565b5050565b7fa49807205ce4d355092ef5a8a18f56e8913cf4a201fbe287825b095693c2177581565b60035481565b6108a56115df565b6040518060a001604052808381526020016004600085815260200190815260200160002060009054906101000a900473ffffffffffffffffffffffffffffffffffffffff1673ffffffffffffffffffffffffffffffffffffffff16815260200160056000858152602001908152602001600020805461092390612019565b80601f016020809104026020016040519081016040528092919081815260200182805461094f90612019565b801561099c5780601f106109715761010080835404028352916020019161099c565b820191906000526020600020905b81548152906001019060200180831161097f57829003601f168201915b505050505081526020016006600085815260200190815260200160002080546109c490612019565b80601f01602080910402602001604051908101604052809291908181526020018280546109f090612019565b8015610a3d5780601f10610a1257610100808354040283529160200191610a3d565b820191906000526020600020905b815481529060010190602001808311610a2057829003601f168201915b50505050508152602001600760008581526020019081526020016000208054610a6590612019565b80601f0160208091040260200160405190810160405280929190818152602001828054610a9190612019565b8015610ade5780601f10610ab357610100808354040283529160200191610ade565b820191906000526020600020905b815481529060010190602001808311610ac157829003601f168201915b50505050508152509050919050565b60006001600084815260200190815260200160002060000160008373ffffffffffffffffffffffffffffffffffffffff1673ffffffffffffffffffffffffffffffffffffffff16815260200190815260200160002060009054906101000a900460ff16905092915050565b6000801b81565b600060019054906101000a900460ff1680610b85575060008054906101000a900460ff16155b610bc4576040517f08c379a0000000000000000000000000000000000000000000000000000000008152600401610bbb906120bd565b60405180910390fd5b60008060019054906101000a900460ff161590508015610c14576001600060016101000a81548160ff02191690831515021790555060016000806101000a81548160ff0219169083151502179055505b8360038190555060005b83839050811015610c8d57610c7a7fa49807205ce4d355092ef5a8a18f56e8913cf4a201fbe287825b095693c21775858584818110610c6057610c5f6120dd565b5b9050602002016020810190610c759190611924565b611395565b8080610c859061213b565b915050610c1e565b5060006002819055508015610cb75760008060016101000a81548160ff0219169083151502179055505b50505050565b3373ffffffffffffffffffffffffffffffffffffffff166004600086815260200190815260200160002060009054906101000a900473ffffffffffffffffffffffffffffffffffffffff1673ffffffffffffffffffffffffffffffffffffffff1614610d5e576040517f08c379a0000000000000000000000000000000000000000000000000000000008152600401610d5590611fca565b60405180910390fd5b82600560008681526020019081526020016000209080519060200190610d85929190611624565b5081600660008681526020019081526020016000209080519060200190610dad929190611624565b5080600760008681526020019081526020016000209080519060200190610dd5929190611624565b507ffd025d83852f29d01b58fd4b19d8cfe0e12af0ee9f31a7e273ea765cd4dd86208433858585604051610e0d9594939291906121cc565b60405180910390a150505050565b610e24826105e9565b610e3581610e3061112e565b611136565b610e3f83836112b3565b505050565b3373ffffffffffffffffffffffffffffffffffffffff166004600083815260200190815260200160002060009054906101000a900473ffffffffffffffffffffffffffffffffffffffff1673ffffffffffffffffffffffffffffffffffffffff1614610ee5576040517f08c379a0000000000000000000000000000000000000000000000000000000008152600401610edc90612280565b60405180910390fd5b816004600083815260200190815260200160002060006101000a81548173ffffffffffffffffffffffffffffffffffffffff021916908373ffffffffffffffffffffffffffffffffffffffff1602179055505050565b3360046000600254815260200190815260200160002060006101000a81548173ffffffffffffffffffffffffffffffffffffffff021916908373ffffffffffffffffffffffffffffffffffffffff160217905550826005600060025481526020019081526020016000209080519060200190610fb8929190611624565b50816006600060025481526020019081526020016000209080519060200190610fe2929190611624565b5080600760006002548152602001908152602001600020908051906020019061100c929190611624565b5042600860006002548152602001908152602001600020819055507f54362b36d34efdda9f90402e88c73fd5b6d780ea5a94052317e4664b31aacc386002543360056000600254815260200190815260200160002060066000600254815260200190815260200160002060076000600254815260200190815260200160002060405161109c959493929190612335565b60405180910390a160016002546110b3919061239d565b600281905550505050565b60025481565b60007f01ffc9a7000000000000000000000000000000000000000000000000000000007bffffffffffffffffffffffffffffffffffffffffffffffffffffffff1916827bffffffffffffffffffffffffffffffffffffffffffffffffffffffff1916149050919050565b600033905090565b6111408282610aed565b6111cf576111658173ffffffffffffffffffffffffffffffffffffffff1660146113a3565b6111738360001c60206113a3565b6040516020016111849291906124c7565b6040516020818303038152906040526040517f08c379a00000000000000000000000000000000000000000000000000000000081526004016111c69190612501565b60405180910390fd5b5050565b6111dd8282610aed565b6112af57600180600084815260200190815260200160002060000160008373ffffffffffffffffffffffffffffffffffffffff1673ffffffffffffffffffffffffffffffffffffffff16815260200190815260200160002060006101000a81548160ff02191690831515021790555061125461112e565b73ffffffffffffffffffffffffffffffffffffffff168173ffffffffffffffffffffffffffffffffffffffff16837f2f8788117e7eff1d82e926ec794901d17c78024a50270940304540a733656f0d60405160405180910390a45b5050565b6112bd8282610aed565b156113915760006001600084815260200190815260200160002060000160008373ffffffffffffffffffffffffffffffffffffffff1673ffffffffffffffffffffffffffffffffffffffff16815260200190815260200160002060006101000a81548160ff02191690831515021790555061133661112e565b73ffffffffffffffffffffffffffffffffffffffff168173ffffffffffffffffffffffffffffffffffffffff16837ff6391f5c32d9c69d2a47ea670b442974b53935d1edc7fd64eb21e047a839171b60405160405180910390a45b5050565b61139f82826111d3565b5050565b6060600060028360026113b69190612523565b6113c0919061239d565b67ffffffffffffffff8111156113d9576113d8611ba2565b5b6040519080825280601f01601f19166020018201604052801561140b5781602001600182028036833780820191505090505b5090507f300000000000000000000000000000000000000000000000000000000000000081600081518110611443576114426120dd565b5b60200101907effffffffffffffffffffffffffffffffffffffffffffffffffffffffffffff1916908160001a9053507f7800000000000000000000000000000000000000000000000000000000000000816001815181106114a7576114a66120dd565b5b60200101907effffffffffffffffffffffffffffffffffffffffffffffffffffffffffffff1916908160001a905350600060018460026114e79190612523565b6114f1919061239d565b90505b6001811115611591577f3031323334353637383961626364656600000000000000000000000000000000600f861660108110611533576115326120dd565b5b1a60f81b82828151811061154a576115496120dd565b5b60200101907effffffffffffffffffffffffffffffffffffffffffffffffffffffffffffff1916908160001a905350600485901c94508061158a9061257d565b90506114f4565b50600084146115d5576040517f08c379a00000000000000000000000000000000000000000000000000000000081526004016115cc906125f3565b60405180910390fd5b8091505092915050565b6040518060a0016040528060008152602001600073ffffffffffffffffffffffffffffffffffffffff1681526020016060815260200160608152602001606081525090565b82805461163090612019565b90600052602060002090601f0160209004810192826116525760008555611699565b82601f1061166b57805160ff1916838001178555611699565b82800160010185558215611699579182015b8281111561169857825182559160200191906001019061167d565b5b5090506116a691906116aa565b5090565b5b808211156116c35760008160009055506001016116ab565b5090565b6000604051905090565b600080fd5b600080fd5b60007fffffffff0000000000000000000000000000000000000000000000000000000082169050919050565b611710816116db565b811461171b57600080fd5b50565b60008135905061172d81611707565b92915050565b600060208284031215611749576117486116d1565b5b60006117578482850161171e565b91505092915050565b60008115159050919050565b61177581611760565b82525050565b6000602082019050611790600083018461176c565b92915050565b6000819050919050565b6117a981611796565b81146117b457600080fd5b50565b6000813590506117c6816117a0565b92915050565b6000602082840312156117e2576117e16116d1565b5b60006117f0848285016117b7565b91505092915050565b6000819050919050565b61180c816117f9565b811461181757600080fd5b50565b60008135905061182981611803565b92915050565b600060208284031215611845576118446116d1565b5b60006118538482850161181a565b91505092915050565b611865816117f9565b82525050565b6000602082019050611880600083018461185c565b92915050565b600073ffffffffffffffffffffffffffffffffffffffff82169050919050565b60006118b182611886565b9050919050565b6118c1816118a6565b81146118cc57600080fd5b50565b6000813590506118de816118b8565b92915050565b600080604083850312156118fb576118fa6116d1565b5b60006119098582860161181a565b925050602061191a858286016118cf565b9150509250929050565b60006020828403121561193a576119396116d1565b5b6000611948848285016118cf565b91505092915050565b61195a81611796565b82525050565b60006020820190506119756000830184611951565b92915050565b61198481611796565b82525050565b611993816118a6565b82525050565b600081519050919050565b600082825260208201905092915050565b60005b838110156119d35780820151818401526020810190506119b8565b838111156119e2576000848401525b50505050565b6000601f19601f8301169050919050565b6000611a0482611999565b611a0e81856119a4565b9350611a1e8185602086016119b5565b611a27816119e8565b840191505092915050565b600060a083016000830151611a4a600086018261197b565b506020830151611a5d602086018261198a565b5060408301518482036040860152611a7582826119f9565b91505060608301518482036060860152611a8f82826119f9565b91505060808301518482036080860152611aa982826119f9565b9150508091505092915050565b60006020820190508181036000830152611ad08184611a32565b905092915050565b600080fd5b600080fd5b600080fd5b60008083601f840112611afd57611afc611ad8565b5b8235905067ffffffffffffffff811115611b1a57611b19611add565b5b602083019150836020820283011115611b3657611b35611ae2565b5b9250929050565b600080600060408486031215611b5657611b556116d1565b5b6000611b64868287016117b7565b935050602084013567ffffffffffffffff811115611b8557611b846116d6565b5b611b9186828701611ae7565b92509250509250925092565b600080fd5b7f4e487b7100000000000000000000000000000000000000000000000000000000600052604160045260246000fd5b611bda826119e8565b810181811067ffffffffffffffff82111715611bf957611bf8611ba2565b5b80604052505050565b6000611c0c6116c7565b9050611c188282611bd1565b919050565b600067ffffffffffffffff821115611c3857611c37611ba2565b5b611c41826119e8565b9050602081019050919050565b82818337600083830152505050565b6000611c70611c6b84611c1d565b611c02565b905082815260208101848484011115611c8c57611c8b611b9d565b5b611c97848285611c4e565b509392505050565b600082601f830112611cb457611cb3611ad8565b5b8135611cc4848260208601611c5d565b91505092915050565b60008060008060808587031215611ce757611ce66116d1565b5b6000611cf5878288016117b7565b945050602085013567ffffffffffffffff811115611d1657611d156116d6565b5b611d2287828801611c9f565b935050604085013567ffffffffffffffff811115611d4357611d426116d6565b5b611d4f87828801611c9f565b925050606085013567ffffffffffffffff811115611d7057611d6f6116d6565b5b611d7c87828801611c9f565b91505092959194509250565b60008060408385031215611d9f57611d9e6116d1565b5b6000611dad858286016118cf565b9250506020611dbe858286016117b7565b9150509250929050565b600080600060608486031215611de157611de06116d1565b5b600084013567ffffffffffffffff811115611dff57611dfe6116d6565b5b611e0b86828701611c9f565b935050602084013567ffffffffffffffff811115611e2c57611e2b6116d6565b5b611e3886828701611c9f565b925050604084013567ffffffffffffffff811115611e5957611e586116d6565b5b611e6586828701611c9f565b9150509250925092565b600082825260208201905092915050565b7f416c726561647920766572696669656400000000000000000000000000000000600082015250565b6000611eb6601083611e6f565b9150611ec182611e80565b602082019050919050565b60006020820190508181036000830152611ee581611ea9565b9050919050565b7f416363657373436f6e74726f6c3a2063616e206f6e6c792072656e6f756e636560008201527f20726f6c657320666f722073656c660000000000000000000000000000000000602082015250565b6000611f48602f83611e6f565b9150611f5382611eec565b604082019050919050565b60006020820190508181036000830152611f7781611f3b565b9050919050565b7f4e6f74206f776e6572206f662064617070000000000000000000000000000000600082015250565b6000611fb4601183611e6f565b9150611fbf82611f7e565b602082019050919050565b60006020820190508181036000830152611fe381611fa7565b9050919050565b7f4e487b7100000000000000000000000000000000000000000000000000000000600052602260045260246000fd5b6000600282049050600182168061203157607f821691505b6020821081141561204557612044611fea565b5b50919050565b7f496e697469616c697a61626c653a20636f6e747261637420697320616c72656160008201527f647920696e697469616c697a6564000000000000000000000000000000000000602082015250565b60006120a7602e83611e6f565b91506120b28261204b565b604082019050919050565b600060208201905081810360008301526120d68161209a565b9050919050565b7f4e487b7100000000000000000000000000000000000000000000000000000000600052603260045260246000fd5b7f4e487b7100000000000000000000000000000000000000000000000000000000600052601160045260246000fd5b600061214682611796565b91507fffffffffffffffffffffffffffffffffffffffffffffffffffffffffffffffff8214156121795761217861210c565b5b600182019050919050565b61218d816118a6565b82525050565b600061219e82611999565b6121a88185611e6f565b93506121b88185602086016119b5565b6121c1816119e8565b840191505092915050565b600060a0820190506121e16000830188611951565b6121ee6020830187612184565b81810360408301526122008186612193565b905081810360608301526122148185612193565b905081810360808301526122288184612193565b90509695505050505050565b7f4e6f74206f776e65720000000000000000000000000000000000000000000000600082015250565b600061226a600983611e6f565b915061227582612234565b602082019050919050565b600060208201905081810360008301526122998161225d565b9050919050565b60008190508160005260206000209050919050565b600081546122c281612019565b6122cc8186611e6f565b945060018216600081146122e757600181146122f95761232c565b60ff198316865260208601935061232c565b612302856122a0565b60005b8381101561232457815481890152600182019150602081019050612305565b808801955050505b50505092915050565b600060a08201905061234a6000830188611951565b6123576020830187612184565b818103604083015261236981866122b5565b9050818103606083015261237d81856122b5565b9050818103608083015261239181846122b5565b90509695505050505050565b60006123a882611796565b91506123b383611796565b9250827fffffffffffffffffffffffffffffffffffffffffffffffffffffffffffffffff038211156123e8576123e761210c565b5b828201905092915050565b600081905092915050565b7f416363657373436f6e74726f6c3a206163636f756e7420000000000000000000600082015250565b60006124346017836123f3565b915061243f826123fe565b601782019050919050565b600061245582611999565b61245f81856123f3565b935061246f8185602086016119b5565b80840191505092915050565b7f206973206d697373696e6720726f6c6520000000000000000000000000000000600082015250565b60006124b16011836123f3565b91506124bc8261247b565b601182019050919050565b60006124d282612427565b91506124de828561244a565b91506124e9826124a4565b91506124f5828461244a565b91508190509392505050565b6000602082019050818103600083015261251b8184612193565b905092915050565b600061252e82611796565b915061253983611796565b9250817fffffffffffffffffffffffffffffffffffffffffffffffffffffffffffffffff04831182151516156125725761257161210c565b5b828202905092915050565b600061258882611796565b9150600082141561259c5761259b61210c565b5b600182039050919050565b7f537472696e67733a20686578206c656e67746820696e73756666696369656e74600082015250565b60006125dd602083611e6f565b91506125e8826125a7565b602082019050919050565b6000602082019050818103600083015261260c816125d0565b905091905056fea2646970667358221220e8874472b99f795c264c612c2fbef6d21b929e133ecb516317dad7b009fe9b9a64736f6c63430008090033",
  "linkReferences": {},
  "deployedLinkReferences": {}
}