{
  "_format": "hh-sol-artifact-1",
  "contractName": "NotUpgradableStore",
  "sourceName": "contracts/NotUpgradableStore.sol",
  "abi": [
    {
      "inputs": [
        {
          "internalType": "uint256",
          "name": "_amountToPay",
          "type": "uint256"
        }
      ],
      "stateMutability": "nonpayable",
      "type": "constructor"
    },
    {
      "anonymous": false,
      "inputs": [
        {
          "indexed": false,
          "internalType": "uint256",
          "name": "appID",
          "type": "uint256"
        },
        {
          "indexed": false,
          "internalType": "address",
          "name": "appOwner",
          "type": "address"
        },
        {
          "indexed": false,
          "internalType": "string",
          "name": "appName",
          "type": "string"
        },
        {
          "indexed": false,
          "internalType": "string",
          "name": "appIPFSHash",
          "type": "string"
        },
        {
          "indexed": false,
          "internalType": "string",
          "name": "appAddData",
          "type": "string"
        }
      ],
      "name": "NewApp",
      "type": "event"
    },
    {
      "anonymous": false,
      "inputs": [
        {
          "indexed": false,
          "internalType": "uint256",
          "name": "appID",
          "type": "uint256"
        },
        {
          "indexed": false,
          "internalType": "address",
          "name": "appOwner",
          "type": "address"
        },
        {
          "indexed": false,
          "internalType": "string",
          "name": "appName",
          "type": "string"
        },
        {
          "indexed": false,
          "internalType": "string",
          "name": "appIPFSHash",
          "type": "string"
        },
        {
          "indexed": false,
          "internalType": "string",
          "name": "appAddData",
          "type": "string"
        }
      ],
      "name": "UpdateApp",
      "type": "event"
    },
    {
      "inputs": [],
      "name": "amountToPay",
      "outputs": [
        {
          "internalType": "uint256",
          "name": "",
          "type": "uint256"
        }
      ],
      "stateMutability": "view",
      "type": "function"
    },
    {
      "inputs": [],
      "name": "appID",
      "outputs": [
        {
          "internalType": "uint256",
          "name": "",
          "type": "uint256"
        }
      ],
      "stateMutability": "view",
      "type": "function"
    },
    {
      "inputs": [
        {
          "internalType": "uint256",
          "name": "_appID",
          "type": "uint256"
        }
      ],
      "name": "getDAppData",
      "outputs": [
        {
          "components": [
            {
              "internalType": "uint256",
              "name": "appID",
              "type": "uint256"
            },
            {
              "internalType": "address",
              "name": "appOwner",
              "type": "address"
            },
            {
              "internalType": "string",
              "name": "appName",
              "type": "string"
            },
            {
              "internalType": "string",
              "name": "appIPFSHash",
              "type": "string"
            },
            {
              "internalType": "string",
              "name": "appAddData",
              "type": "string"
            }
          ],
          "internalType": "struct NotUpgradableStore.App",
          "name": "",
          "type": "tuple"
        }
      ],
      "stateMutability": "view",
      "type": "function"
    },
    {
      "inputs": [],
      "name": "owner",
      "outputs": [
        {
          "internalType": "address",
          "name": "",
          "type": "address"
        }
      ],
      "stateMutability": "view",
      "type": "function"
    },
    {
      "inputs": [
        {
          "internalType": "uint256",
          "name": "_appID",
          "type": "uint256"
        }
      ],
      "name": "releaseDApp",
      "outputs": [],
      "stateMutability": "nonpayable",
      "type": "function"
    },
    {
      "inputs": [
        {
          "internalType": "string",
          "name": "_name",
          "type": "string"
        },
        {
          "internalType": "string",
          "name": "_ipfsHash",
          "type": "string"
        },
        {
          "internalType": "string",
          "name": "_additionalData",
          "type": "string"
        }
      ],
      "name": "submitDApp",
      "outputs": [],
      "stateMutability": "payable",
      "type": "function"
    },
    {
      "inputs": [
        {
          "internalType": "uint256",
          "name": "_appID",
          "type": "uint256"
        },
        {
          "internalType": "string",
          "name": "_name",
          "type": "string"
        },
        {
          "internalType": "string",
          "name": "_ipfsHash",
          "type": "string"
        },
        {
          "internalType": "string",
          "name": "_additionalData",
          "type": "string"
        }
      ],
      "name": "updateDApp",
      "outputs": [],
      "stateMutability": "nonpayable",
      "type": "function"
    }
  ],
  "bytecode": "0x60806040523480156200001157600080fd5b50604051620012b5380380620012b58339818101604052810190620000379190620000cd565b80600281905550336000806101000a81548173ffffffffffffffffffffffffffffffffffffffff021916908373ffffffffffffffffffffffffffffffffffffffff160217905550600060018190555050620000ff565b600080fd5b6000819050919050565b620000a78162000092565b8114620000b357600080fd5b50565b600081519050620000c7816200009c565b92915050565b600060208284031215620000e657620000e56200008d565b5b6000620000f684828501620000b6565b91505092915050565b6111a6806200010f6000396000f3fe6080604052600436106100705760003560e01c80638da5cb5b1161004e5780638da5cb5b14610106578063ab444f2814610131578063e73173a41461015a578063f9a6cbae1461017657610070565b80635cadd4a9146100755780637ba136801461009e578063887e4b86146100c9575b600080fd5b34801561008157600080fd5b5061009c6004803603810190610097919061095c565b6101a1565b005b3480156100aa57600080fd5b506100b3610303565b6040516100c09190610998565b60405180910390f35b3480156100d557600080fd5b506100f060048036038101906100eb919061095c565b610309565b6040516100fd9190610b20565b60405180910390f35b34801561011257600080fd5b5061011b610559565b6040516101289190610b51565b60405180910390f35b34801561013d57600080fd5b5061015860048036038101906101539190610ca1565b61057d565b005b610174600480360381019061016f9190610d5c565b6106db565b005b34801561018257600080fd5b5061018b610824565b6040516101989190610998565b60405180910390f35b3373ffffffffffffffffffffffffffffffffffffffff166003600083815260200190815260200160002060009054906101000a900473ffffffffffffffffffffffffffffffffffffffff1673ffffffffffffffffffffffffffffffffffffffff1614610242576040517f08c379a000000000000000000000000000000000000000000000000000000000815260040161023990610e60565b60405180910390fd5b7f54362b36d34efdda9f90402e88c73fd5b6d780ea5a94052317e4664b31aacc3881336004600085815260200190815260200160002060056000868152602001908152602001600020600660008781526020019081526020016000206040516102af959493929190610f76565b60405180910390a13373ffffffffffffffffffffffffffffffffffffffff166108fc6002549081150290604051600060405180830381858888f193505050501580156102ff573d6000803e3d6000fd5b5050565b60025481565b61031161082a565b6040518060a001604052808381526020016003600085815260200190815260200160002060009054906101000a900473ffffffffffffffffffffffffffffffffffffffff1673ffffffffffffffffffffffffffffffffffffffff16815260200160046000858152602001908152602001600020805461038f90610eaf565b80601f01602080910402602001604051908101604052809291908181526020018280546103bb90610eaf565b80156104085780601f106103dd57610100808354040283529160200191610408565b820191906000526020600020905b8154815290600101906020018083116103eb57829003601f168201915b5050505050815260200160056000858152602001908152602001600020805461043090610eaf565b80601f016020809104026020016040519081016040528092919081815260200182805461045c90610eaf565b80156104a95780601f1061047e576101008083540402835291602001916104a9565b820191906000526020600020905b81548152906001019060200180831161048c57829003601f168201915b505050505081526020016006600085815260200190815260200160002080546104d190610eaf565b80601f01602080910402602001604051908101604052809291908181526020018280546104fd90610eaf565b801561054a5780601f1061051f5761010080835404028352916020019161054a565b820191906000526020600020905b81548152906001019060200180831161052d57829003601f168201915b50505050508152509050919050565b60008054906101000a900473ffffffffffffffffffffffffffffffffffffffff1681565b3373ffffffffffffffffffffffffffffffffffffffff166003600086815260200190815260200160002060009054906101000a900473ffffffffffffffffffffffffffffffffffffffff1673ffffffffffffffffffffffffffffffffffffffff161461061e576040517f08c379a000000000000000000000000000000000000000000000000000000000815260040161061590610e60565b60405180910390fd5b8260046000868152602001908152602001600020908051906020019061064592919061086f565b508160056000868152602001908152602001600020908051906020019061066d92919061086f565b508060066000868152602001908152602001600020908051906020019061069592919061086f565b507ffd025d83852f29d01b58fd4b19d8cfe0e12af0ee9f31a7e273ea765cd4dd862084338585856040516106cd959493929190611017565b60405180910390a150505050565b600254341461071f576040517f08c379a0000000000000000000000000000000000000000000000000000000008152600401610716906110cb565b60405180910390fd5b3360036000600154815260200190815260200160002060006101000a81548173ffffffffffffffffffffffffffffffffffffffff021916908373ffffffffffffffffffffffffffffffffffffffff16021790555082600460006001548152602001908152602001600020908051906020019061079c92919061086f565b508160056000600154815260200190815260200160002090805190602001906107c692919061086f565b508060066000600154815260200190815260200160002090805190602001906107f092919061086f565b50426007600060015481526020019081526020016000208190555060018054610819919061111a565b600181905550505050565b60015481565b6040518060a0016040528060008152602001600073ffffffffffffffffffffffffffffffffffffffff1681526020016060815260200160608152602001606081525090565b82805461087b90610eaf565b90600052602060002090601f01602090048101928261089d57600085556108e4565b82601f106108b657805160ff19168380011785556108e4565b828001600101855582156108e4579182015b828111156108e35782518255916020019190600101906108c8565b5b5090506108f191906108f5565b5090565b5b8082111561090e5760008160009055506001016108f6565b5090565b6000604051905090565b600080fd5b600080fd5b6000819050919050565b61093981610926565b811461094457600080fd5b50565b60008135905061095681610930565b92915050565b6000602082840312156109725761097161091c565b5b600061098084828501610947565b91505092915050565b61099281610926565b82525050565b60006020820190506109ad6000830184610989565b92915050565b6109bc81610926565b82525050565b600073ffffffffffffffffffffffffffffffffffffffff82169050919050565b60006109ed826109c2565b9050919050565b6109fd816109e2565b82525050565b600081519050919050565b600082825260208201905092915050565b60005b83811015610a3d578082015181840152602081019050610a22565b83811115610a4c576000848401525b50505050565b6000601f19601f8301169050919050565b6000610a6e82610a03565b610a788185610a0e565b9350610a88818560208601610a1f565b610a9181610a52565b840191505092915050565b600060a083016000830151610ab460008601826109b3565b506020830151610ac760208601826109f4565b5060408301518482036040860152610adf8282610a63565b91505060608301518482036060860152610af98282610a63565b91505060808301518482036080860152610b138282610a63565b9150508091505092915050565b60006020820190508181036000830152610b3a8184610a9c565b905092915050565b610b4b816109e2565b82525050565b6000602082019050610b666000830184610b42565b92915050565b600080fd5b600080fd5b7f4e487b7100000000000000000000000000000000000000000000000000000000600052604160045260246000fd5b610bae82610a52565b810181811067ffffffffffffffff82111715610bcd57610bcc610b76565b5b80604052505050565b6000610be0610912565b9050610bec8282610ba5565b919050565b600067ffffffffffffffff821115610c0c57610c0b610b76565b5b610c1582610a52565b9050602081019050919050565b82818337600083830152505050565b6000610c44610c3f84610bf1565b610bd6565b905082815260208101848484011115610c6057610c5f610b71565b5b610c6b848285610c22565b509392505050565b600082601f830112610c8857610c87610b6c565b5b8135610c98848260208601610c31565b91505092915050565b60008060008060808587031215610cbb57610cba61091c565b5b6000610cc987828801610947565b945050602085013567ffffffffffffffff811115610cea57610ce9610921565b5b610cf687828801610c73565b935050604085013567ffffffffffffffff811115610d1757610d16610921565b5b610d2387828801610c73565b925050606085013567ffffffffffffffff811115610d4457610d43610921565b5b610d5087828801610c73565b91505092959194509250565b600080600060608486031215610d7557610d7461091c565b5b600084013567ffffffffffffffff811115610d9357610d92610921565b5b610d9f86828701610c73565b935050602084013567ffffffffffffffff811115610dc057610dbf610921565b5b610dcc86828701610c73565b925050604084013567ffffffffffffffff811115610ded57610dec610921565b5b610df986828701610c73565b9150509250925092565b600082825260208201905092915050565b7f4e6f74206f776e6572206f662064617070000000000000000000000000000000600082015250565b6000610e4a601183610e03565b9150610e5582610e14565b602082019050919050565b60006020820190508181036000830152610e7981610e3d565b9050919050565b7f4e487b7100000000000000000000000000000000000000000000000000000000600052602260045260246000fd5b60006002820490506001821680610ec757607f821691505b60208210811415610edb57610eda610e80565b5b50919050565b60008190508160005260206000209050919050565b60008154610f0381610eaf565b610f0d8186610e03565b94506001821660008114610f285760018114610f3a57610f6d565b60ff1983168652602086019350610f6d565b610f4385610ee1565b60005b83811015610f6557815481890152600182019150602081019050610f46565b808801955050505b50505092915050565b600060a082019050610f8b6000830188610989565b610f986020830187610b42565b8181036040830152610faa8186610ef6565b90508181036060830152610fbe8185610ef6565b90508181036080830152610fd28184610ef6565b90509695505050505050565b6000610fe982610a03565b610ff38185610e03565b9350611003818560208601610a1f565b61100c81610a52565b840191505092915050565b600060a08201905061102c6000830188610989565b6110396020830187610b42565b818103604083015261104b8186610fde565b9050818103606083015261105f8185610fde565b905081810360808301526110738184610fde565b90509695505050505050565b7f457468657220666f72206c6f636b757020726571756972656400000000000000600082015250565b60006110b5601983610e03565b91506110c08261107f565b602082019050919050565b600060208201905081810360008301526110e4816110a8565b9050919050565b7f4e487b7100000000000000000000000000000000000000000000000000000000600052601160045260246000fd5b600061112582610926565b915061113083610926565b9250827fffffffffffffffffffffffffffffffffffffffffffffffffffffffffffffffff03821115611165576111646110eb565b5b82820190509291505056fea26469706673582212205c17795542b2dc53e02fabbc4bfe1bbd5ec1c9f91c380af9fa9fb0f0fc3948c864736f6c63430008090033",
  "linkReferences": {},
  "deployedLinkReferences": {}
}